:082ADC008F108E0F8D0E8C0D82
:102AE400A2AFE433F5178583F68582F7AF10AE0FF6
:102AF400AD0EAC0D78101210018F93AF10AE0FAD68
:102B04000EAC0D78081210018F83851082AF14AEBD
:102B140013AD12AC1178101210018F95AF14AE13CF
:102B2400AD12AC1178081210018F858514848515B7
:102B3400FD8516FCC2AF53FFBF1207A285F683853D
:102B4400F782E4F593F59543FF40E51724FF92AF30
:012B5400225E
:102CC20090015BEEF0A3EFF0E4A3F0A3F090015BC0
:102CD200E0FEA3E0FFC390015EE09F90015DE09EF5
:102CE200501A0000000000000000000090015EE0A9
:0D2CF20004F070D990015DE004F080D12263
:102D3C00900157EEF0A3EFF0E4A3F0A3F09001574D
:102D4C00E0FEA3E0FFC390015AE09F900159E09E82
:102D5C0050177FE87E03122CC290015AE004F070E9
:0A2D6C00DC900159E004F080D4224D
:102D7600900278EEF0A3EFF0E4A3F0A3F0900278CF
:102D8600E0FEA3E0FFC390027BE09F90027AE09E04
:102D960050177F0A7E00122D3C90027BE004F070F3
:0A2DA600DC90027AE004F080D422F1
:101F71004E415320494E4954000D0A2D2D2D2D2D32
:101F81002D2D4154414F452044524956455220532D
:101F9100544152542D2D2D2D2D2D2D2D0D0A000D79
:101FA1000A2D2D2D2D2D2D2D4154414F45204452CB
:101FB1004956455220454E442D2D2D2D2D2D2D2D8B
:101FC1000D0A003D3D3D3D3D3D3D3D3D3D3D3D3DE0
:101FD1003D3D3D3D3D3D3D3D3D3D3D3D3D3D3D3D30
:101FE1003D3D3D3D3D3D3D3D3D3D3D3D3D3D3D3D20
:101FF1003D0D0A002020202020202057373130308D
:102001002020204E657420436F6E66696720496EFB
:10201100666F726D6174696F6E2020202020202010
:1020210020200D0A004D4143204144445245535361
:10203100204950203A20252E32782E252E32782E16
:10204100252E32782E252E32782E252E32782E25E9
:102051002E32780D0A00252E33642E252E33642E60
:10206100252E33642E252E3364005355424E45549C
:10207100204D41534B20203A2025730D0A00472F54
:10208100572049502041444452455353203A20257A
:10209100730D0A004C4F43414C20495020414444A8
:1020A10052455353203A2025730D0A0008010101BE
:0C20B10001010101080101010101010110
:102F01004400F90A0101024400FD0A0101014401E2
:0E2F110001FFFFFF004600D30008DC000000B7
:102DB000120050122C45122F247BFF7A1F7971E4E8
:102DC000FF122F671207677BFF7A1F797A12046D53
:102DD0007B017A0079D3E4FF12257B7BFF7A1F7990
:062DE000A012046D80FE4C
:102C4500C2AF758E027592037DFF7F167E00122E30
:102C550094E490012FF090012FE0FFC394085017E2
:102C6500EFFEE4242CFFEE3440FE7D1F122E9490DF
:0E2C7500012FE004F080DFD2EB122FD8D2AF97
:012C8300222E
:1007670078407C017D017BFF7A2079AD7E007F0890
:10077700120EA678487C017D017BFF7A2079B57E31
:10078700007F08120EA69000F9E0FD7F0F7E001291
:100797002E949000FAE0FD7F107E00122E949000B8
:1007A700FBE0FD7F117E00122E949000FCE0FD7FA0
:1007B700127E00122E949000FDE0FD7F017E001254
:1007C7002E949000FEE0FD7F027E00122E94900092
:1007D700FFE0FD7F037E00122E94900100E0FD7F75
:1007E700047E00122E94900101E0FD7F057E001229
:1007F7002E94900102E0FD7F067E00122E94900158
:1008070003E0FD7F077E00122E94900104E0FD7F38
:10081700087E00122E949000D3E0FD7F097E00121F
:100827002E949000D4E0FD7F0A7E00122E94900053
:10083700D5E0FD7F0B7E00122E949000D6E0FD7F61
:100847000C7E00122E949000D7E0FD7F0D7E0012E3
:100857002E949000D8E0FD7F0E7E00122E9490011A
:10086700537401F0A37401F0A37448F07B017A017B
:100877007940120A9FE59130E1FB5391FD7BFF7AA6
:100887001F79C412046D7BFF7A1F79F512046D7B03
:10089700FF7A1F79C412046D7F097E00122F4C7EE8
:1008A70000C007C0067F0A122F4C7E00C007C00693
:1008B7007F0B122F4C7E00C007C0067F0C122F4CF7
:1008C7007E00C007C0067F0D122F4C7E00C007C0F8
:1008D700067F0E122F4C90015DE4F0A3EFF090011C
:1008E7005BD0E0F0A3D0E0F0900159D0E0F0A3D0C6
:1008F700E0F0900157D0E0F0A3D0E0F0900155D0A0
:10090700E0F0A3D0E0F0900153D0E0F0A3D0E0F006
:100917007BFF7A20792612046D7F057E00122F4C0B
:100927007E00C007C0067F06122F4C7E00C007C09E
:10093700067F07122F4C7E00C007C0067F08122FC4
:100947004C90015CE4F0A3EFF090015AD0E0F0A3E3
:10095700D0E0F0900158D0E0F0A3D0E0F09001563D
:10096700D0E0F0A3D0E0F090015374FFF0A374201F
:10097700F0A37457F07B017A01792F120467900175
:10098700537401F0A37401F0A3742FF07BFF7A2056
:10099700796B12046D7F017E00122F4C7E00C00719
:1009A700C0067F02122F4C7E00C007C0067F0312CD
:1009B7002F4C7E00C007C0067F04122F4C90015CAD
:1009C700E4F0A3EFF090015AD0E0F0A3D0E0F0906C
:1009D7000158D0E0F0A3D0E0F0900156D0E0F0A3AA
:1009E700D0E0F090015374FFF0A37420F0A3745784
:1009F700F07B017A01792F1204679001537401F09B
:100A0700A37401F0A3742FF07BFF7A20797F12047F
:100A17006D7F0F7E00122F4C7E00C007C0067F102F
:100A2700122F4C7E00C007C0067F11122F4C7E008C
:100A3700C007C0067F12122F4C90015CE4F0A3EFB1
:100A4700F090015AD0E0F0A3D0E0F0900158D0E048
:100A5700F0A3D0E0F0900156D0E0F0A3D0E0F09002
:100A6700015374FFF0A37420F0A37457F07B017A4D
:100A770001792F1204679001537401F0A37401F0F8
:100A8700A3742FF07BFF7A20799512046D7B017A8E
:080A970001792F7F01022F6796
:102FD800C2AB758920438780758DFCD28E75985257
:072FE800C298C299C2AC229D
:08302F008F993099FDC299222E
:10268F0090013DEFF090013FEAF0A3EBF090013E97
:02269F00EDF05C
:1026A10064016018E0FF64026012EF6403600DEFE3
:1026B10064046008EF6405600302278590013DE032
:1026C100FF122E4F90013DE0FEE42400FFEE344066
:1026D100FE900141E0FD90013EE04DFD122E9490EF
:1026E100013FE0FCA3E04C602C90013DE0FEE424BE
:1026F10004FFEE3440FEC006C007ECFDD007D00653
:10270100122E9490013DE0FEE42405FFEE3440FEDC
:1027110090013F803C9001C1E004F070069001C03F
:10272100E004F090013DE0FEE42404FFEE3440FEBD
:10273100C006C0079001C0E0A3FDD007D006122E4D
:102741009490013DE0FEE42405FFEE3440FE90014B
:10275100C0A3E0FD122E9490013DE0FEE42401FFB0
:10276100EE3440FE7D01122E9490013DE0FEE42402
:1027710001FFEE3440FE122F4CEF70ED90014274D8
:0E27810001F08005E4900142F0900142E0FF7B
:01278F002227
:102E4F00900143EFF0FEE42401FFEE3440FE7D10CD
:102E5F00122E94900143E0FEE42401FFEE3440FE75
:102E6F00122F4CEF70ED900143E0FF7DFF022F8793
:052C0000900282EFF0DC
:102C0500122FEFEF6413702D900282E0FEE4240191
:102C1500FFEE3440FE7D02122E94900282E0FEE427
:102C25002401FFEE3440FE122F4CEF70ED9002832D
:0F2C35007401F08005E4900283F0900283E0FFC9
:012C4400226D
:0E1CC700900271EFF0A3EBF0A3EAF0A3E9F0B6
:101CD500120ECCFFB4FF26900272E0FBA3E0FAA33C
:101CE500E0F9900001120EE5B4FF12900002120E09
:101CF500E5B4FF09900003120EE5F46030EF7023A0
:101D0500900272E0FBA3E0FAA3E0F9900001120E45
:101D1500E57010900002120EE57008900003120E97
:101D2500E5600A900275E07002A3E07008E4900295
:101D350077F0021E169002777401F0900271E0FEB2
:101D4500E4240CFFEE3440FEA3E0FBA3E0FAA3E09D
:101D5500F9120ECCFD122E94900271E0FEE4240DD2
:101D6500FFEE3440FEA3E0FBA3E0FAA3E0F9900008
:101D750001120EE5FD122E94900271E0FEE4240E90
:101D8500FFEE3440FEA3E0FBA3E0FAA3E0F99000E8
:101D950002120EE5FD122E94900271E0FEE4240F6E
:101DA500FFEE3440FEA3E0FBA3E0FAA3E0F99000C8
:101DB50003120EE5FD122E94900271E0FEE424104C
:101DC500FFEE3440FEC006C007900275E0A3FDD0CB
:101DD50007D006122E94900271E0FEE42411FFEE66
:101DE5003440FE900275A3E0FD122E94900271E03E
:101DF500FEE42401FFEE3440FE7D04122E94900291
:101E050071E0FEE42401FFEE3440FE122F4CEF702A
:061E1500ED900277E0FFF2
:011E1B0022A4
:102EDA00900284EFF0FEE42401FFEE3440FE7D0808
:102EEA00122E94900284E0FEE42401FFEE3440FEA8
:072EFA00122F4CEF70ED22D6
:0E167D0090025BEFF0A3EBF0A3EAF0A3E9F01C
:10168B00E4900261F0A3F0A3F0A3F0A3F0A3F09019
:10169B00025BE0FE25E024A8F582E43401F583E04B
:1016AB00FCA3E0FD90025FE0FAA3E0FBD39DEA9C74
:1016BB00401AEE25E024A8F582E43401F583E0FD21
:1016CB00A3E0900265CDF0A3EDF08008900265EAEF
:1016DB00F0A3EBF090025BE0FF120003900263EECD
:1016EB00F0A3EFF090025BE0FF122FEFEF641760B7
:1016FB000EEF641C6009E4900265F0A3F080159076
:10170B000265E0FCA3E0FDC3900264E09D900263E0
:10171B00E09C40C090025BE0FEE42424FFEE3440EA
:10172B00FE122F4C900261E4F0A3EFF090025BE00D
:10173B00FEE42425FFEE3440FE122F4CEFFD7C001F
:10174B00900262E0FEE42DFFEC3EFE900261F0FCA5
:10175B00A3EFF0FD90025BE0FFAA04A905900165E1
:10176B00E4F0A3EAF0A3E9F090025FE0FDA3E090C0
:10177B000168CDF0A3EDF090025CE0FBA3E0FAA3CF
:10178B00E0F912184B90025FE0FEA3E0FF900262BB
:10179B00E02FF0900261E03EF090025BE0FEE4246B
:1017AB0024FFEE3440FEC006C007900261E0A3FDAB
:1017BB00D007D006122E9490025BE0FEE42425FFA6
:1017CB00EE3440FE900261A3E0FD122E9490025B7A
:1017DB00E0FEE42401FFEE3440FE7D20122E9490B7
:1017EB00025BE0FEE42401FFEE3440FE122F4CEFCF
:1017FB0070ED90025BE0FEE42402FFEE3440FE123B
:10180B002F4CEF20E41F90025BE0FEE42403FFEE7D
:10181B003440FE122F4CEF70D990025BE0FF122E7A
:10182B004FE4FEFF2290025BE0FEE42402FFEE3465
:0F183B0040FE7D10122E94900265E0FEA3E0FFA8
:01184A00227B
:0E233300900267EFF0A3EBF0A3EAF0A3E9F04D
:10234100E490026DF0A3F0A3F0A3F0D390026CE04F
:10235100940090026BE094005003022452900267B3
:10236100E0FEE42428FFEE3440FE122F4C90026D73
:10237100E4F0A3EFF0900267E0FEE42429FFEE34DD
:1023810040FE122F4CEFFD7C0090026EE0FEE42D2A
:10239100FFEC3EFE90026DF0FCA3EFF0FD900267B2
:1023A100E0FFAA04A9057B00C002C001A3E0F9A3D4
:1023B100E0FAA3E0900159C9F0A3EAF0A3E9F09093
:1023C100026BE0FDA3E090015CCDF0A3EDF0D00144
:1023D100D0021219D690026BE0FEA3E0FF90026ECC
:1023E100E02FF090026DE03EF0900267E0FEE42401
:1023F10028FFEE3440FEC006C00790026DE0A3FD49
:10240100D007D006122E94900267E0FEE42429FF43
:10241100EE3440FE90026DA3E0FD122E949002670F
:10242100E0FEE42401FFEE3440FE7D40122E949044
:102431000267E0FEE42401FFEE3440FE122F4CEF70
:1024410070ED90026BE0FFA3E090026FCFF0A3EF7D
:09245100F090026FE0FEA3E0FF31
:01245A00225F
:0E140600900152EFF0A3EBF0A3EAF0A3E9F09F
:10141400E490015DF0A3F0A3F0A3F0900152E02565
:10142400E024A8F582E43401F583E0FEA3E0FF9014
:101434000156E0FCA3E0FDD39FEC9E90015D4007C4
:10144400EEF0A3EFF08005ECF0A3EDF0900158E08E
:10145400FBA3E0FAA3E0F9120ECC7018900001127D
:101464000EE57010900002120EE570089000031251
:101474000EE5601490015BE07002A3E0600A900145
:101484005DE07002A3E0700AE490015DF0A3F00255
:101494001674900152E0FEE4240CFFEE3440FE1278
:1014A4000ECCFD122E94900152E0FEE4240DFFEECA
:1014B4003440FE900158E0FBA3E0FAA3E0F9900069
:1014C40001120EE5FD122E94900152E0FEE4240E6A
:1014D400FFEE3440FE900158E0FBA3E0FAA3E0F9EC
:1014E400900002120EE5FD122E94900152E0FEE4EB
:1014F400240FFFEE3440FE900158E0FBA3E0FAA372
:10150400E0F9900003120EE5FD122E94900152E0D2
:10151400FEE42410FFEE3440FEC006C00790015BD9
:10152400E0A3FDD007D006122E94900152E0FEE411
:101534002411FFEE3440FE90015BA3E0FD122E94D3
:10154400900152E0FEE42424FFEE3440FE122F4CBE
:1015540090015FE4F0A3EFF0900152E0FEE4242553
:10156400FFEE3440FE122F4CEFFD7C00900160E052
:10157400FEE42DFFEC3EFE90015FF0FCA3EFF0FDD6
:10158400900152E0FFAA04A905900165E4F0A3EAE2
:10159400F0A3E9F0900156E0FDA3E0900168CDF0DE
:1015A400A3EDF0900153E0FBA3E0FAA3E0F91218D5
:1015B4004B900156E0FEA3E0FF900160E02FF09015
:1015C400015FE03EF0900152E0FEE42424FFEE349B
:1015D40040FEC006C00790015FE0A3FDD007D0061F
:1015E400122E94900152E0FEE42425FFEE3440FED6
:1015F40090015FA3E0FD122E94900152E0FEE424DA
:1016040001FFEE3440FE7D20122E94900152E0FE44
:10161400E42401FFEE3440FE122F4CEF70ED9001F4
:1016240052E0FEE42402FFEE3440FE122F4CEF2081
:10163400E42C900152E0FF123018EF30E3E0900107
:1016440052E0FF7D08122F87900152E0FEE424024D
:10165400FFEE3440FE7D10122E94E4FEFF22900132
:1016640052E0FEE42402FFEE3440FE7D10122E947C
:0816740090015DE0FEA3E0FF20
:01167C00224B
:0E10FB0090013DEFF0A3EBF0A3EAF0A3E9F0C3
:10110900E4900151F0A3F0A3F0A3F0D3900142E0E1
:101119009400900141E0940050030213FD90013DB9
:10112900E0FEE42428FFEE3440FE122F4C900153D8
:10113900E4F0A3EFF090013DE0FEE42429FFEE3452
:1011490040FE122F4CEFFD7C00900154E0FEE42D8F
:10115900FFEC3E900153F0A3EFF090013DE0FEE477
:101169002400FFEE3440FE122F4CEF540724FD708B
:10117900030212551470030212EE240260030213D3
:10118900D890013DE0FF900153E0FCA3E0AA04F9E7
:101199007B00C0030B900159EBF0A37401F0A37419
:1011A90049F0A3E4F0A37408F0D0031219D6900112
:1011B90054E02408F0900153E03400F0900149E034
:1011C900FF900143E0FBA3E0FAA3E0F9EF120F124D
:1011D90090014AE0FF900143E0FBA3E0FAA3E0F9A4
:1011E900900001EF120F2490014BE0900002120FC2
:1011F9002490014CE0900003120F2490014DE0FF70
:10120900900146E0FBA3E0FAA3E0F9E48FF0120FA6
:10121900D5900146E0FBA3E0FAA3E0F9120F72FEB4
:1012290090014EE07C002400FFEC3E8FF0120FD5B8
:1012390090014FE0FF900151E4F0A3EFF0E0FE9040
:101249000150E02400FFEC3EA302134C90013DE065
:10125900FF900153E0FCA3E0AA04F97B00C0030B53
:10126900900159EBF0A37401F0A37449F0A3E4F0E1
:10127900A37406F0D0031219D6900154E02406F0A5
:10128900900153E03400F0900149E0FF900143E000
:10129900FBA3E0FAA3E0F9EF120F1290014AE0FF75
:1012A900900143E0FBA3E0FAA3E0F9900001EF12FB
:1012B9000F2490014BE0900002120F2490014CE0A2
:1012C900900003120F2490014DE0FF900151E4F0CA
:1012D900A3EFF0E0FE90014EE07C002400FFEC3E1D
:1012E900900151805E90013DE0FF900153E0FCA325
:1012F900E0AA04F97B00C0030B900159EBF0A37439
:1013090001F0A37449F0A3E4F0A37402F0D003122E
:1013190019D6900154E02402F0900153E03400F012
:10132900900149E0FF900151E4F0A3EFF0E0FE9055
:10133900014AE07C002400FFEC3ECF24FECF34FFBD
:10134900900151F0A3EFF090013DE0FF900153E0CF
:10135900FCA3E0AA04F97B00C002C00190013EE0B1
:10136900F9A3E0FAA3E0900159C9F0A3EAF0A3E9CF
:10137900F0900151E0FDA3E090015CCDF0A3EDF008
:10138900D001D0021219D6900151E0FEA3E0FF90DE
:101399000154E02FF0900153E03EF090013DE0FE52
:1013A900E42428FFEE3440FEC006C007900153E054
:1013B900A3FDD007D006122E9490013DE0FEE4244F
:1013C90029FFEE3440FE900153A3E0FD122E9490C4
:1013D900013DE0FEE42401FFEE3440FE7D40122E83
:1013E9009490013DE0FEE42401FFEE3440FE122F0B
:0C13F9004CEF70ED900151E0FEA3E0FF0E
:0114050022C4
:101B510090024AEBF0A3EAF0A3E9F0A3ECF0A3EDC5
:011B6100F093
:101B620090024DE0C313FFA3E013900255CFF0A300
:101B7200EFF0A312105000000000E4900253F0A313
:101B8200F0900255E0FEA3E0FFC3900254E09F9064
:101B92000253E09E4003021C1FA3E025E0FD9002D9
:101BA20053E033FC90024AE0FBA3E0FAA3E0F98D94
:101BB200828C83120EE5FF900251E4F0A3EFF0E075
:101BC200F8E4F0E8900251F08D828C83A3120EE5C6
:101BD200FF900252E02FF0900251E03400F09002A8
:101BE20057E0F8A3E0F9A3E0FAA3E0FB900251E08A
:101BF200FEA3E0FFE4FCFDEB2FFFEA3EFEED39FD24
:101C0200EC38FC900257121044900254E004F06049
:101C120003021B83900253E004F0021B8390024EE6
:101C2200E030E052900254E025E0FF900253E033AE
:101C3200FE90024AE0FBA3E0FAA3E0F98F828E83D2
:101C4200120EE5FF900251E4F0A3EFF0900257E08C
:101C5200F8A3E0F9A3E0FAA3E0FB900252E07F00D0
:101C6200FEE4FCFDEF2BFFEA3EFEED39FDEC38FC15
:101C7200900257121044900257A3A3E0FFA3E090F2
:101C8200024FCFF0A3EFF0900257E0FCA3E0FDA3D8
:101C9200E0FEA3E0FF7810121001A804A905AA062D
:101CA200AB0790024FE0FEA3E0FFE4FCFDEB2FFF49
:101CB200EA3EFEED39FDEC38FC120FF490024FEED5
:041CC200F0A3EFF0AC
:011CC60022FB
:01005A002283
:102B5500495020636F6E666C696374203A20252E98
:102B650032780D0A00494E5420506F727420556E0C
:102B7500726561636861626C65203A20252E327842
:102B85000D0A005549505230203A2025642E2564FF
:102B95002E25642E25640D0A0055504F52543020C1
:0E2BA5003A20252E327820252E32780D0A0097
:102E7F00FFEE3440FEE0FBA3E0FAA3E0F98D828C75
:052E8F0083120EE5FDB9
:102E9400A2AFE433FCC2AF7593FE8F828E83EDF054
:0A2EA400E4F593AF04EF24FF92AFB2
:012EAE002201
:052F4700FFEE3440FE26
:102F4C00A2AFE433F9C2AF7593FE8F828E83E0FF9C
:0A2F5C00E4F593AD01ED24FF92AF00
:012F66002248
:03005B00021E1C66
:101E1C00C0E0C0F0C083C082C0D075D000C000C08C
:0D1E2C0001C002C003C004C005C006C0070D
:101E3900C2AF7F157E00122F4C900105EFF030E7FD
:101E49000E7BFF7A2B7955E0900153F012046D90C7
:101E59000105E0FF30E66F7BFF7A2B796A90015329
:101E6900F012046D7F2A7E00122F4CAC077F2B7E67
:101E790000122F4CAB077F2C7E00122F4CAA077F34
:101E89002D7E00122F4C900156EFF0900155EAF08B
:101E9900900154EBF0900153ECF07BFF7A2B798899
:101EA90012046D7F2E7E00122F4CAC077F2F7E000F
:101EB900122F4C900154EFF0900153ECF07BFF7A14
:101EC9002B799E12046D900105E0FD7F157E0012AD
:101ED9002E947F34122F4C900105EFF0A3E4F0907B
:101EE9000106E0FFC39408505374017E00A8070857
:101EF9008005C333CE33CED8F9FF900105E0FDEF5D
:101F09005D6031A3E0FEE42402122F47AC07900183
:101F190006E02422F582E43402F583E0FFEC54EF75
:101F2900FDEF4DF0900106E0FEE42402FFEE34409F
:101F3900FE122E94900106E004F080A3900105E0C2
:0D1F4900FD7F347E00122E945391F7D2AF2D
:101F5600D007D006D005D004D003D002D001D000DF
:0B1F6600D0D0D082D083D0F0D0E03289
:0D30180074222FF582E43402F583E0FF22DC
:102F870074222FF582E43402F583E0FEEDF4FDEEC2
:0F2F97005DFE74222FF582E43402F583EEF02202
:0B0A9F00900150EBF0A3EAF0A3E9F097
:100AAA00E4900158F0A3F0A3F0A3F090023A748006
:100ABA00F0A3E4F090022A74C0F0A3E4F090015687
:100ACA00F0A3F0900156E0FCA3E0FDFEE4241F90A1
:100ADA000150122E7F900156E0FCA3E0FDFEE424B3
:100AEA001E900153122E7F900156E0FCA3E0FD25D3
:100AFA00E0FFEC33FE74122FF58274023EF583E4B4
:100B0A00F0A3F074022FF58274023EF583E4F0A399
:100B1A00F0C3900158E0648094C04003020C019035
:100B2A000150E0FBA3E0FAA3E0F98D828C83120E58
:100B3A00E524FE603E24FE606524FC7003020BD3AC
:100B4A0024076003020C01900157E025E0FF9001A1
:100B5A0056E033FE74122FF58274023EF583740454
:100B6A00F0A3E4F074F22FF58274013EF583740366
:100B7A00020BFC900157E025E0FF900156E033FE9E
:100B8A0074122FF58274023EF5837408F0A3E4F020
:100B9A0074F22FF58274013EF58374078054900134
:100BAA0057E025E0FF900156E033FE74122FF582DC
:100BBA0074023EF5837410F0A3E4F074F22FF58208
:100BCA0074013EF583740F8029900157E025E0FFF8
:100BDA00900156E033FE74122FF58274023EF583BB
:100BEA007420F0A3E4F074F22FF58274013EF583C9
:100BFA00741FF0A374FFF0C390015AE0648094C09C
:100C0A004003020CE7900153E0FBA3E0FAA3E0F9EA
:100C1A00A3E0FEA3E0FFF5828E83120EE524FE60B8
:100C2A003824FE605F24FC7003020CB924076003B9
:100C3A00020CE7EF25E0FFEE33FE74022FF5827413
:100C4A00023EF5837404F0A3E4F074E22FF5827493
:100C5A00013EF5837403020CE2900157E025E0FFA0
:100C6A00900156E033FE74022FF58274023EF5833A
:100C7A007408F0A3E4F074E22FF58274013EF58360
:100C8A0074078054900157E025E0FF900156E03345
:100C9A00FE74022FF58274023EF5837410F0A3E409
:100CAA00F074E22FF58274013EF583740F80299067
:100CBA000157E025E0FF900156E033FE74022FF55C
:100CCA008274023EF5837420F0A3E4F074E22FF5F7
:100CDA008274013EF583741FF0A374FFF0900156ED
:100CEA00E0FCA3E0FD25E0FFEC33FE74122FF58251
:100CFA0074023EF583E0FAA3E0FB900159E02BF081
:100D0A00900158E03AF074022FF58274023EF5839E
:100D1A00E0FEA3E0FF90015BE02FF090015AE03E75
:100D2A00F0ED4C7003020DB3900156A3E025E0FFED
:100D3A00EC33FE74102FF58274023EF583E0FAA3B9
:100D4A00E0FB74382FF58274023EF583E0FEA3E0DF
:100D5A002BFBEE3AFAED25E0FFEC33FE743A2FF561
:100D6A008274023EF583EAF0A3EBF074002FF58259
:100D7A0074023EF583E0FCA3E0FD74282FF582742B
:100D8A00023EF583E0FEA3E02DFDEE3CFC90015708
:100D9A00E025E0FF900156E033FE742A2FF58274B5
:100DAA00023EF583ECF0A3EDF0900157E004F070F9
:100DBA0006900156E004F0C3900157E094089001B0
:0B0DCA0056E0648094805003020ACDC4
:010DD50022FB
:022FEF00AC072D
:102FF1007BFFECFEE42403122F47EF6B6004AB0769
:0230010080F05D
:0130030022AA
:0500030090027CEFF00B
:10000800E4FBFAA3F0A3F090027CE0FEE4242012C3
:100018002F477A00AB0790027CE0FEE42421122FE0
:1000280047EFFD7C00EBFEE42DFBEC3EFA90027DF1
:10003800E06A7003A3E06B600A90027DEAF0A3EB2C
:07004800F080C4AE02AF031B
:01004F00228E
:052BB30090013DEFF070
:102BB800E4FBFAA3F0A3F090013DE0FEE424261222
:102BC8002F477A00AB0790013DE0FEE42427122F3F
:102BD80047EFFD7C00EBFEE42DFBEC3EFA90013E56
:102BE800E06A7003A3E06B600A90013EEAF0A3EB91
:072BF800F080C4AE02AF0340
:012BFF0022B3
:05184B00900161EFF0C7
:10185000AF0190016CEAF0A3EFF0900165A3E0FA0C
:10186000A3E0FF900161E0F925E024F2F582E43481
:1018700001F583E05AFEA3E05FFBAA06E925E02418
:101880003AF582E43402F583E0FEA3E02BFFEE3A62
:1018900090016EF0A3EFF0900169E02BFF900168DA
:1018A000E03AFEE925E02412F582E43402F583E013
:1018B000FCA3E0C39FEC9E4003021993900161E0FA
:1018C00025E02412F582E43402F583E0FEA3E0ACC7
:1018D00002AD03C39DFFEE9C90016AF0A3EFF0A35D
:1018E000E0FEA3E0FFE4FCFDC004C005C006C007A5
:1018F000A3E0FEA3E0FFE42FFFE43EFEED34FEFD97
:10190000EC338F148E138D12F51190016AE0F515EA
:10191000A3E0F516D007D006D005D004122ADC903B
:10192000016AE0FEA3E0FF90016DE02FF090016CF2
:10193000E03EF0C3900169E09FFF900168E09E9057
:10194000016AF0A3EFF0900161E025E0243AF5820E
:10195000E43402F583E0FFA3E090016ECFF0A3EF43
:10196000F090016CE0FEA3E0FFE4FCFDC004C005C4
:10197000C006C007A3E0FEA3E0FFE42FFFE43EFEA5
:10198000ED34FEFDEC338F148E138D12F5119001A2
:101990006A803090016CE0FEA3E0FFE4FCFDC0042F
:1019A000C005C006C007A3E0FEA3E0FFE42FFFE4EC
:1019B0003EFEED34FEFDEC338F148E138D12F511C7
:1019C000900168E0F515A3E0F516D007D006D00524
:0519D000D004122ADC26
:0119D50022EF
:0E19D600900155EFF0A3EBF0A3EAF0A3E9F0C7
:1019E400A3A3E0FAA3E0FF900162EAF0A3EFF09072
:1019F4000156A3E0FAA3E0FF900155E0F925E024A5
:101A0400E2F582E43401F583E05AFEA3E05FFBAA29
:101A140006E925E0242AF582E43402F583E0FEA3F6
:101A2400E02BFFEE3A900160F0A3EFF090015DE04F
:101A34002BFF90015CE03AFEE925E02402F582E404
:101A44003402F583E0FCA3E0C39FEC9E4003021B39
:101A540017900155E025E02402F582E43402F58371
:101A6400E0FEA3E0AC02AD03C39DFFEE9C90015EDB
:101A7400F0A3EFF0A3E0FEA3E0FFE42FFFE43EFEBB
:101A8400E434FEFDE433FCC006C007A3E0FEA3E09B
:101A9400FFE48F148E13F512F51190015EE0F51535
:101AA400A3E0F516D007D006122ADC90015EE0FE12
:101AB400A3E0FF900163E02FF0900162E03EF0C3E9
:101AC40090015DE09FFF90015CE09E90015EF0A3B9
:101AD400EFF0900155E025E0242AF582E43402F584
:101AE40083E0FEA3E0FF900160EEF0A3EFF0E42FAB
:101AF400FFE43EFEE434FEFDE433FCC006C007A36D
:101B0400E0FEA3E0FFE48F148E13F512F5119001AB
:101B14005E802B900160E0FEA3E0FFE42FFFE43E33
:101B2400FEE434FEFDE433FCC006C007A3E0FEA3DC
:101B3400E0FFE48F148E13F512F51190015CE0F5CB
:0C1B440015A3E0F516D007D006122ADC2D
:011B50002272
:0300000002294C86
:0F294C0053FF7F787FE4F6D8FD7581220229962C
:102EAF00E490012FF0A3F0C280D281D2A730A718EF
:102EBF0090012FE475F001120F5CFED3E5F094FE44
:0A2ECF00EE94FF40E67F00227F0131
:012ED90022D6
:102FA6008FA0C280C2817F017E00122CC2D2827F96
:092FB600037E00122D3CC28222B0
:102FBF008FA0D280C2817F017E00122CC2D2827F6D
:092FCF00037E00122D3CC2822297
:102F2400C282C280C2817F38122FA67F0C122FA6C4
:102F3400122EAF7F01122FA6122EAF7F02122FA6E0
:032F44007F0122E8
:102DE600900153EFF0ED14601214601714601C2468
:102DF600037022900153E024808016900153E02452
:102E0600C0800E900153E024948006900153E02484
:062E1600D4FF122FA622DA
:0B2CFF00900153EBF0A3EAF0A3E9F012
:102D0A00E4A3F0900153E0FBA3E0FAA3E0F9A3E007
:102D1A00F582758300120EE5FF600B122FBF90013A
:102D2A0056E004F080DD900153E0FBA3E0FAA3E053
:012D3A00F99F
:012D3B002275
:102F6700900150EBF0A3EAF0A3E9F0AD07E4FF12FC
:102F77002DE6900150E0FBA3E0FAA3E0F9022CFF55
:102209004445535420253032583A253032583A251E
:102219003032583A253032583A253032583A25303A
:1022290032580D0A0053524320253032583A25308E
:1022390032583A253032583A253032583A25303218
:10224900583A253032580D0A00464C41475320254B
:10225900780D0A4D414A4F522025750D0A4D494EB8
:102269004F522025750D0A434D442025780D0A004B
:1022790041544120434D442025580D0A00534543FC
:10228900544F52532025750D0A004C4241202530E8
:1022990032583A253032583A253032583A253032B8
:1022A900583A253032583A253032580D0A004D61D6
:1022B90078205175657565204C656E6774682025B1
:1022C900750D0A004669726D7761726520566572EF
:1022D90073696F6E2025750D0A004D61782053656D
:1022E90063746F72732025750D0A00414F452050A4
:1022F900726F746F636F6C2025750A0D0043434D2F
:10230900442025750D0A00537472696E67206C6547
:102319006E6774682025750D0A00526567733A2047
:0A232900002530327820000D0A0074
:042F1F004100490024
:1020BD00E0FBA3E0FAA3E0F990014CEBF0A3EAF00A
:1020CD00A3E9F090014CE0FBA3E0FAA3E0F9120EB6
:1020DD00CCFF900153E4F0A3EFF0900001120EE558
:1020ED00FF900155E4F0A3EFF0900002120EE5FF12
:1020FD00900157E4F0A3EFF0900003120EE5FF906E
:10210D000159E4F0A3EFF0900004120EE5FF9001E9
:10211D005BE4F0A3EFF0900005120EE5FF90015D7A
:10212D00E4F0A3EFF07BFF7A22790912046D9001A0
:10213D004CE0FBA3E0FAA3E0F9900006120EE5FFD8
:10214D00900153E4F0A3EFF0900007120EE5FF901D
:10215D000155E4F0A3EFF0900008120EE5FF900199
:10216D0057E4F0A3EFF0900009120EE5FF9001592E
:10217D00E4F0A3EFF090000A120EE5FF90015BE48E
:10218D00F0A3EFF090000B120EE5FF90015DE4F06F
:09219D00A3EFF07BFF7A22792EFA
:1021A60012046D90014CE0FBA3E0FAA3E0F9900065
:1021B60010120F9DFFAEF012005A900155EEF0A3DB
:1021C600EFF090014CE0FBA3E0FAA3E0F990000EDB
:1021D600120EE5FF900153E4F0A3EFF09000121207
:1021E6000EE5FF900157E4F0A3EFF0900013120EF6
:1021F600E5FF900159E4F0A3EFF07BFF7A227952D4
:0322060002046D62
:1028870090027FEBF0A3EAF0A3E9F090027F122019
:10289700BD90027FE0FBA3E0FAA3E0F990001B12D2
:1028A7000EE5FF900153E4F0A3EFF07BFF7A227966
:1028B7007912046D90027FE0FBA3E0FAA3E0F990A0
:1028C700001A120EE5FF900153E4F0A3EFF07BFF2F
:1028D7007A22798612046D90027FE0FBA3E0FAA3C7
:1028E700E0F990001C120EE5FF900153E4F0A3EF0E
:1028F700F090001D120EE5FF900155E4F0A3EFF0F4
:1029070090001E120EE5FF900157E4F0A3EFF09040
:10291700001F120EE5FF900159E4F0A3EFF09000BD
:1029270020120EE5FF90015BE4F0A3EFF090002189
:10293700120EE5FF90015DE4F0A3EFF07BFF7A2232
:05294700799302046D0C
:10279000900149EBF0A3EAF0A3E9F090014912207F
:1027A000BD900149E0FBA3E0FAA3E0F99000181204
:1027B0000F9DFFAEF012005A900153EEF0A3EFF020
:1027C0007BFF7A2279B712046D900149E0FBA3E008
:1027D000FAA3E0F990001A120F9DFFAEF012005A12
:1027E000900153EEF0A3EFF07BFF7A2279CD120433
:1027F0006D900149E0FBA3E0FAA3E0F990001C1200
:102800000EE5FF900153E4F0A3EFF07BFF7A22790D
:10281000E312046D900149E0FBA3E0FAA3E0F99014
:10282000001D120EE5C4540FFF900153E4F0A3EF16
:10283000F07BFF7A2279F412046D900149E0FBA34A
:10284000E0FAA3E0F990001D120EE5540FFF90018D
:1028500053E4F0A3EFF07BFF7A23790612046D9026
:102860000149E0FBA3E0FAA3E0F990001E120F9DDE
:10287000FFAEF012005A900153EEF0A3EFF07BFF91
:072880007A23791002046DB8
:033037000220C5AF
:03303A000220C5AC
:10245B0090013DEFF0A3EBF0A3EAF0A3E9F09001BC
:10246B0045121050FFFFFFFF900141E0FBA3E0FA84
:10247B00A3E0F91227909000767488F0A374A2F071
:10248B00A37418F0E4A3F0A3F0A304F0E4A3F0A367
:10249B0004F0907006E090006AF0907007E09000F6
:1024AB006BF0907008E090006CF0907009E0900079
:1024BB006DF090700AE090006EF090700BE0900061
:1024CB006FF090013EE0FBA3E0FAA3E0F9120ECC13
:1024DB00900070F0900001120EE5900071F09000EA
:1024EB0002120EE5900072F0900003120EE59000C0
:1024FB0073F0900004120EE5900074F0900005123A
:10250B000EE5900075F0900141E0FBA3E0FAA3E02B
:10251B00F990001412101490007E1210447F017E6B
:10252B000012005A900082EEF0A3EFF0E4A3F0A3A8
:10253B00F0A3F0A37410F0E4A3F0A3F090013DE03E
:0A254B00FF900156E4F0A37421F0A4
:10255500A37401F0A37401F0A37445F0A3740BF008
:10256500A374B8F07B017A00796A121406EF4E70F5
:0625750002FF227F01229B
:102A6000900155EFF05407F044F8F5907F017E0097
:102A7000122CC2900155E044F0F5907F017E0012C7
:102A80002CC275B0FF75A0FF900155E04430F59061
:102A90000000000000000000000000000000000036
:102AA000000000007F017E00122CC2900000E5A013
:102AB000F07F017E00122CC2900155E04470F59029
:102AC0007F017E00122CC2900155E044F8F5907F02
:0C2AD000017E00122CC2900000E0FF22EA
:103004007590E87F647E00122CC27590F87F047E70
:0430140000022D3C4D
:102E1C00E4900152F0A3F0A3F07F07122A60900017
:102E2C0049EFF020E7037F0122900152E475F00195
:102E3C00120F4645F070E2900154E004F0B40AD948
:032E4C007F0022E2
:1029DB0090701FE0FD900153EDF0900152EFF05419
:1029EB0007F044F8F5907F017E00122CC290015243
:1029FB00E044F0F5907F017E00122CC2900153E071
:102A0B00F5A075B0FF7F027E00122CC20000000003
:102A1B0000900152E044D0F5907F017E00122CC251
:102A2B0000000000000000000000900152E044F0A4
:102A3B00F5907F017E00122CC275A0FF75B0FF7F51
:102A4B00017E00122CC2900152E044F8F5907F01F8
:052A5B007E00022CC208
:102C84007BFF7A23792312046D9002857401F090FE
:102C94000285E0FFC39408501C122A60900153E49B
:102CA400F0A3EFF07BFF7A23792A12046D9002855A
:0E2CB400E004F080DA7BFF7A23793002046DB1
:10005E0090013DEFF0A3EBF0A3EAF0A3E9F09001DD
:10006E00491210500FFFFFFF122E1C907018E03037
:10007E00E64A545044A0FD7F061229E0122E1C7F42
:10008E00031229DB90701CE0FD7F031229E09070B3
:10009E0020E0FD7F041229E090701DE0FD7F041228
:1000AE0029E0907021E0FD7F051229E090701EE09E
:1000BE00FD7F051229E0E4FD7F0280237F061229D1
:1000CE00DB122E1C90701CE0FD7F031229E0907055
:1000DE001DE0FD7F041229E090701EE0FD7F0512E9
:1000EE0029E090701AE0FD7F021229E0907019E06D
:1000FE00FD7F011229E090701BE0B424047D208066
:10010E000590701BE0FD7F071229E07B017A707964
:10011E0024AF01AE027D017C009001451210449087
:10012E000145E0FCA3E0FDA3E0FEA3E0FF78101282
:10013E0010018F95900145E0FCA3E0FDA3E0FEA326
:10014E00E0FF78081210018F85900145A3A3A3E06C
:10015E00F58490014FEBF0A3EAF0A3E9F0122E1C08
:03016E0090701876
:10017100E020E003020238E4900144F0900049E0FD
:10018100544870030202F57590F87F017E00122C2D
:10019100C27590F07F017E00122CC290701AE0901F
:1001A1000143F0900143E0700302021B14F0E4905C
:1001B1000141F0A3F090014FE0FBA3E475F00112BF
:1001C1000F5CA9F0FA120ECCF5A090014FE0FBA351
:1001D100E475F001120F5CA9F0FA120ECCF5B07FB4
:1001E100017E00122CC27590D000000000000000BA
:1001F1000000007F017E00122CC27590F07F017E0D
:1002010000122CC2900141E475F001120F46FEE488
:10021100B5F0A2EEB4019E0201A475B0FF75A0FF76
:100221007F017E00122CC27590F87F017E00122C96
:10023100C2122E1C0202F5E4900144F0900049E044
:10024100544870030202F590701AE0900144F09056
:100251000143F0900143E070030202EB14F075B02A
:10026100FF75A0FF7590F87F017E00122CC29001EE
:10027100417401F0A3E4F0900141E07002A3E06059
:10028100D27590707F017E00122CC27590307F0272
:0F0291007E00122CC290014FE0FBA3E475F00138
:1002A000120F5CA9F0FAE5A0120F1290014FE0FBCB
:1002B000A3E475F001120F5CA9F0FAE5B0120F1279
:1002C0007F017E00122CC27590707F017E00122C7F
:1002D000C27590787F017E00122CC2900142E0240A
:1002E000FFF0900141E034FFF0808D7590F87F01C0
:1002F0007E00122CC27F03122A6090701CEFF07FE8
:1003000004122A6090701DEFF07F05122A60907031
:100310001EEFF07F01122A60907019EFF07F021239
:100320002A6090701AEFF07F07122A6090701BEF1E
:10033000F090700E7418F0907010E4F0A304F0E4E4
:10034000A3F090700C7488F0A374A2F0907006E093
:10035000907000F0907007E0907001F0907008E0ED
:10036000907002F0907009E0907003F090700AE0D5
:10037000907004F090700BE0907005F090013EE0FA
:10038000FBA3E0FAA3E0F9120ECC907006F0900007
:1003900001120EE5907007F0900002120EE59070C9
:1003A00008F0900003120EE5907009F0900004121E
:1003B0000EE590700AF0900005120EE590700BF0BB
:0A03C000900144E025E0FEE424244F
:1003CA00FFE43EFE900141F0FCA3EFF0FD90013DF9
:1003DA00E0FF900156ECF0A3EDF0A37401F0A374D2
:1003EA0001F0A37449F0A3740BF0A374B8F07B0175
:0803FA007A707900121406224A
:0A00500075A0FF75B0FF7590F8224F
:0A302500120050123004122E1C227B
:10257B0090012FEFF0A3EBF0A3EAF0A3E9F0E4A3B3
:10258B00F0A3F0900137F0A3F012302590012FE06B
:10259B00FF122FEFEF24BE6021244270EF90012F2A
:1025AB00E0FF122E4F90012FE0FFE4900141F07BF2
:1025BB00B87A0B7D0412268F80D290012FE0FF1288
:1025CB002BB3900133EEF0A3EFF0D39400EE940015
:1025DB0040BA90012FE0FF900133E0FDA3E09001A2
:1025EB0041CDF0A3EDF0A37401F0A37401F0A3743B
:1025FB0039F0A37401F0A37401F0A37435F07B01DF
:10260B007A7079001210FB900137EEF0A3EFF09087
:10261B00700CE064887004A3E064A2600302259749
:10262B00907013E014602114604214604B2403601B
:10263B000302259790012FE0FFA3E0FBA3E0FAA391
:10264B00E0F912005E02259790012FE0FF90014107
:0B265B007401F0A37470F0A37400F091
:10266600900130E0FBA3E0FAA3E0F912245B022517
:10267600977B017A7079001230370225977B017AB1
:0926860070790012303A02259728
:10295B00022DB0E493A3F8E493A34003F68001F2B5
:10296B0008DFF48029E493A3F85407240CC8C3337D
:10297B00C4540F4420C8834004F456800146F6DF4C
:10298B00E4800B0102040810204080902F01E47EAC
:10299B00019360BCA3FF543F30E509541FFEE49341
:1029AB00A360010ECF54C025E060A840B8E493A308
:1029BB00FAE493A3F8E493A3C8C582C8CAC583CA33
:1029CB00F0A3C8C582C8CAC583CADFE9DEE780BEEB
:012F230000AD
:100DD600E709F608DFFA8046E709F208DFFA803EFF
:100DE60088828C83E709F0A3DFFA8032E309F608EC
:100DF600DFFA8078E309F208DFFA807088828C8354
:100E0600E309F0A3DFFA806489828A83E0A3F60807
:100E1600DFFA805889828A83E0A3F208DFFA804CE1
:100E260080D280FA80C680D4806980F280338010B8
:100E360080A680EA809A80A880DA80E280CA803321
:100E460089828A83ECFAE493A3C8C582C8CCC58399
:100E5600CCF0A3C8C582C8CCC583CCDFE9DEE78069
:100E66000D89828A83E493A3F608DFF9ECFAA9F0E8
:100E7600EDFB2289828A83ECFAE0A3C8C582C8CC3E
:100E8600C583CCF0A3C8C582C8CCC583CCDFEADE57
:100E9600E880DB89828A83E493A3F208DFF980CCB9
:100EA60088F0EF60010E4E60C388F0ED2402B404B2
:100EB6000050B9F582EB2402B4040050AF23234559
:060EC6008223900E26734A
:100ECC00BB010689828A83E0225002E722BBFE0224
:090EDC00E32289828A83E4932257
:100EE500BB010CE58229F582E5833AF583E02250C2
:100EF50006E92582F8E622BBFE06E92582F8E2220C
:0D0F0500E58229F582E5833AF583E4932225
:100F1200BB010689828A83F0225002F722BBFE01BE
:020F2200F322B8
:100F2400F8BB010DE58229F582E5833AF583E8F003
:100F3400225006E92582C8F622BBFE05E92582C8AF
:020F4400F22297
:100F4600C5F0F8A3E028F0C5F0F8E5821582700236
:060F56001583E038F022D3
:100F5C00A3F8E0C5F025F0F0E58215827002158348
:060F6C00E0C838F0E822A5
:100F7200BB010A89828A83E0F5F0A3E0225006874A
:100F8200F009E71922BBFE07E3F5F009E31922890C
:0B0F9200828A83E493F5F0740193223F
:100F9D00BB0110E58229F582E5833AF583E0F5F092
:100FAD00A3E0225009E92582F886F008E622BBFE6F
:100FBD000AE92582F8E2F5F008E222E5832AF583B5
:080FCD00E993F5F0A3E993227A
:100FD500BB010A89828A83F0E5F0A3F0225006F767
:0F0FE50009A7F01922BBFE06F3E5F009F3192264
:0D0FF400CFF4CFCEF4CECDF4CDCCF4CC2292
:10100100E8600FECC313FCED13FDEE13FEEF13FFCD
:03101100D8F122F1
:10101400BB010DE58229F582E5833AF58302108D43
:101024005007E92582F8021081BBFE07E92582F802
:10103400021099E58229F582E5833AF5830210A529
:0C104400ECF0A3EDF0A3EEF0A3EFF0221F
:10105000A8828583F0D083D08212106712106712A5
:101060001067121067E473E493A3C583C5F0C583CA
:10107000C8C582C8F0A3C583C5F0C583C8C582C8EA
:01108000224D
:10040200E50D2453F582E43401F583E0050D2290D5
:100412000150301003900153E475F0011210B5023F
:100422000ECC2009E97F2ED2098018EF540F2490B8
:10043200D43440D4FF300D0BEF24BFB41A00500364
:100442002461FFE50E6002150E0511E5117002052B
:100452001030100E900150E475F0011210B5EF0249
:100462000F1202302F7403D2108003E4C210F50D74
:100472009001501210CCE4F50EF510F511E50E6066
:10048200077F2012044580F5750FFFC20AC209C218
:100492000BC20CC20EC20FC211120411FF700D303A
:1004A20010057F00120456AF11AE1022B4255FC2B0
:1004B200D5C20D120411FF24D0B40A00501A75F0EF
:1004C2000A780E30D50508B6FF0106C6A426F62026
:1004D200D5047002D20C80D924CFB41A00EF500494
:1004E200C2E5D20D020657D20A80C6D20980C0D216
:1004F2000B80BCD2D580BAD20E80B47F20120445C4
:10050200200B077401B50E0040F1120402FF120421
:100512004502047FD211D20F8095120402FB12040D
:1005220002FA120402F94A4B700679287A077BFF15
:10053200200B2EE50E602A7E008E82758300120E3D
:10054200E560060EEE650F70F0C2D5EBC0E0EAC0C2
:10055200E0E9C0E0EE12069ED0E0F9D0E0FAD0E089
:10056200FB120ECCFF60AAEBC0E0EAC0E0E9C0E0FB
:10057200120445D0E02401F9D0E03400FAD0E0FBC7
:10058200E50F0460DCD50FD980877BFF7A06799A64
:10059200D20B809C791080027908C20FC2118008A8
:1005A200D2D5790A8004790AC2D5E50F047002F522
:1005B2000FE4FAFDFEFF120402FC7B08200A13126C
:1005C2000402FD7B1030090A120402FE120402FF2B
:1005D2007B20EC3382D592D55013C3E43009069FB9
:1005E200FFE49EFEE4200A039DFDE49CFCE4CBF8BC
:1005F200C20AEC700CCFCECDCCE824F8F870F380B0
:1006020017C3EF33FFEE33FEED33FDEC33FCEB3378
:10061200FB994002FB0FD8E9EB300A05F8D0E0C4A1
:1006220048B20AC0E00AEC4D4E4F78207B0070C2FF
:10063200EAB50F0040BCC0E01206A0D0F0D0E02026
:100642000A04C4C0E0C4B20AC0F012042ED0F0D52D
:10065200F0EB02047F1210D5051C5305965804EDE9
:100662004C04E942059A4F05A24405A249050243FA
:0806720005A855058C46058C16
:10067A0045058C4707485004F12D04F52E05182B23
:10068A0004F92305162007312A04B1480000051091
:10069A003F3F3F00790AA2D5200C14300E09B91049
:1006AA00020404B9080104A2D5200F025001042053
:1006BA000B68920BB50E005034C0E07F20300C1945
:1006CA007F30A20B720F720E500F1206F7C20BC2C6
:1006DA000FC20EC2117F30800F300E03E9C0E01244
:1006EA000445300E03D0E0F9D0E0B50ECC300E1739
:1006FA007F30B9100C1204457F58300D077F78807F
:10070A0003B90803120445300B057F2D0204457F07
:10071A00202011F87F2B200FF322920B80CF286E16
:10072A00756C6C2900D20A120402300AF8C20A78DF
:10073A000E30D50108F60204B12D5043495812046F
:10074A00022403B405004001E490074393120436DF
:0D075A00743A120436D20C750E0402059696
:0C108100E6FC08E6FD08E6FE08E6FF229B
:0C108D00E0FCA3E0FDA3E0FEA3E0FF22D6
:0C109900E2FC08E2FD08E2FE08E2FF2293
:1010A500E493FC740193FD740293FE740393FF2291
:1010B500F8E0FBA3A3E0F925F0F0E58215827002C4
:0710C5001583E0FA38F02268
:0910CC00EBF0A3EAF0A3E9F02225
:1010D500D083D082F8E4937012740193700DA3A3AA
:1010E50093F8740193F5828883E4737402936860BE
:0610F500EFA3A3A380DFBE
:00000001FF
